:020000040800F2
:10000000000400209D010008891100087D110008EE
:1000100085110008690B0008EF15000800000000BA
:100020000000000000000000000000002D12000889
:100030006D0B0008000000008B11000889130008F8
:10004000BD010008BD010008BD010008BD01000898
:10005000BD010008BD010008BD010008BD01000888
:10006000BD010008710B00089D0B0008BD010008D0
:10007000BD010008BD010008BD010008BD01000868
:10008000BD010008BD010008BD010008BD01000858
:10009000BD010008BD010008BD010008BD01000848
:1000A000BD010008BD010008BD010008FD130008E6
:1000B0001D1400083514000851140008BD01000883
:1000C000BD010008BD010008BD010008BD01000818
:1000D000BD010008E9140008F1140008F514000837
:1000E000BD010008BD010008BD010008BD010008F8
:1000F000BD010008BD010008BD010008BD010008E8
:10010000BD010008BD0100086D140008BD01000814
:10011000B1140008B5140008BD010008BD010008B5
:10012000BD010008BD010008BD010008BD010008B7
:10013000BD010008BD010008BD010008BD010008A7
:10014000BD010008BD010008BD010008BD01000897
:10015000BD010008BD010008BD0100082915000807
:10016000BD010008BD010008BD010008BD01000877
:10017000BD010008BD010008BD010008BD01000867
:10018000BD010008DFF80CD000F000FC004800477B
:10019000292C000840AC0020704700000848804728
:1001A000084880F3088806480047FEE7FEE7FEE7B8
:1001B000FEE7FEE7FEE7FEE7FEE7FEE7FEE70000FC
:1001C0008501000840AC0020002109207047F0B4F0
:1001D00080EA0102D40F4200B2EB410F02D2024684
:1001E000084611464A0042D0C30DDDB2C1F3C752E2
:1001F000AD1A202D35DAC1F3160141F4000204B125
:100200005242C5F1200602FA06F12A411044B3EB2E
:10021000D05F23D0C4B1012DA0EBC35009DCF0BCEA
:100220004FF0004202EAC35200F50000DBB200F0DA
:1002300021BB400000F1807000EBC350A0F1807042
:1002400040EAD170490009E0490841EAC071A0EBD9
:10025000C35000F50000400800EBC350F0BC00F0B4
:1002600000BB6142012202EB4101001BF6E7F0BC3A
:10027000704781F00041AAE780F00040A7E780EADC
:10028000010210B502F00043400026D04A0023D0FE
:100290004FEA106101EB1261C0F35600C2F356023F
:1002A00040F4000042F40002A0FB0220A1F17F0113
:1002B0004FEA0040140401D000F1010050EA12405E
:1002C00001D44000491EC2B20C0604EBD010401C01
:1002D0004008802A02D003E0002010BD20F0010079
:1002E000002900DA0020184310BD30B480EA010272
:1002F00002F0004530F0004221F0004015D0A0B1DE
:10030000C0F3C753C2F3C754C2F31601C0F31600BB
:10031000E41A41F4000140F400027D34914201D31B
:10032000641C00E04900002C02DA30BC0020704759
:100330004FF400000023914201D3891A034340087F
:100340004FEA4101F7D151B1914202D14FF0004142
:1003500005E002D24FF0010101E06FF0010103EB73
:10036000C450284430BC00F07CBA2DE9FE4F8046D2
:1003700081EA0300C00F0C46009021F0004123F0F9
:100380000045B8EB0200A94105D2404621469046FF
:100390001C460B46024623F00040104304D1404661
:1003A000214603B0BDE8F08F270DC7F30A00C3F361
:1003B0000A510290401A0190402866DAC3F31300F4
:1003C00040F4801B0098924620B10023D2EB030A30
:1003D00063EB0B0B01985946C0F14002504600F008
:1003E0000FFA06460D4650465946019A00F027FA84
:1003F00010EB08006141002487EA115284EAE77398
:100400001A433BD0009A3AB3019A012A4FEA0752A5
:1004100010DC001B61EB02014FF0004202EA0752C0
:10042000CDE90042001C41F5801132462B4600F018
:100430005BFAB6E7001B61EB0201001C41F580137B
:1004400000185B412018A2F5001747EB030140EAB2
:10045000D570B6196D4111E06D084FEA360645EAD0
:10046000C0754FEA0752001B61EB0201001C41F509
:10047000801149084FEA30000019514132462B469D
:1004800003B0BDE8F04F00F022BA0098012240000E
:100490000023D0EB020263EBE073009821464FEAA1
:1004A000E074B8EB000061EB0401E9E783F000437E
:1004B0005BE781F0004158E72DE9FE4F81EA030434
:1004C00004F0004421F0004100944FF0000B23F0B1
:1004D000004350EA010402D052EA030404D1002090
:1004E000014603B0BDE8F08FC3F30A54C1F30A55C7
:1004F0002C44A4F2F3340194A0FB0254C1F3130181
:1005000041F48011C3F3130343F4801301FB02444D
:1005100000FB034E840A970A44EA815447EA835752
:10052000A4FB076802958D0A05FB07854FEA932C0B
:1005300004FB0C542705029D4FEA065847EA16377C
:10054000B5EB08056EEB070C870E920E47EA811794
:1005500042EA8312A7FB0201B6EB0B0164EB000435
:100560002B0D43EA0C335E1844EB1C50DA4651461F
:10057000E7FB0201C5F313044FEA0B3343EA1453BC
:100580004FEA0432019C43EA0603A4F10C040294EE
:10059000009CCDE900B400F0A7F9A2E72DE9F04DE9
:1005A00081EA030404F0004B21F0004514464FF0AB
:1005B000000A23F0004150EA050220D054EA01026B
:1005C0001DD0C5F30A570246C5F31303C1F3130048
:1005D000C1F30A5640F4801543F48013A7EB0608D4
:1005E000101BD64608F2FD3873EB050002D308F164
:1005F000010801E092185B41B8F1000F03DA002016
:100600000146BDE8F08D00204FF480110646844677
:100610000EE0171B73EB050705D3121B63EB0503F5
:1006200006434CEA010C49084FEA300092185B413E
:1006300050EA0107EDD152EA030012D082EA040029
:1006400083EA0501084303D100224FF0004308E08C
:10065000101BAB4102D20122002302E06FF0010225
:1006600053101AEB06004CEB085110EB0A0041EB5B
:100670000B01BDE8F04D00F02AB9C10F80EAE0702F
:100680000844CA079623002100F0F4B896230022FC
:10069000114600F0EFB80EB5C10F80EAE0700844D3
:1006A000CA07002140F233438DE80E000A460B468C
:1006B00000F01AF903B000BD00F0004220F0004045
:1006C000C10DC0F3160040F400007F2901DA0020BC
:1006D0007047962903DCC1F19601C84001E09639C4
:1006E0008840002AF4D04042704720F00040C10DFD
:1006F000C0F3160040F400007F2901DA00207047A3
:10070000962903DCC1F19601C840704796398840AC
:10071000704770B5C1F30A5201F000450024C1F3DF
:10072000130140F2FF3341F480119A4201DA0020B4
:1007300070BD40F233439A42A2F2334203DC52428C
:1007400000F06DF800E090402C43F1D0404270BDC5
:1007500000F0004230F000400AD0C10D01F5607198
:10076000C0F3160042EA0151C20840071143704726
:10077000002001467047000030B5002904DB4FF02F
:100780000044404264EB0101002B04DB4FF00044C5
:10079000524264EB0303994208BF904230BD00000F
:1007A00001F0004330B421F0004150EA010206D0CC
:1007B0000A0DA2F56072C1F31301002A02DC30BCFD
:1007C00000207047440F44EAC104C100E01830BC67
:1007D00000EBC25000F045B8002801DBC0F100403A
:1007E000002901DBC1F1004181427047002801DB93
:1007F000C0F10040002901DBC1F10041884270478F
:10080000202A04DB203A00FA02F1002070479140D0
:10081000C2F1200320FA03F3194390407047202AC5
:1008200004DB203A21FA02F00021704721FA02F39A
:10083000D040C2F120029140084319467047202A57
:1008400006DBCB17203A41FA02F043EAE07306E0F8
:1008500041FA02F3D040C2F1200291400843194608
:1008600070470029A8BF7047401C490008BF20F00E
:100870000100704710B4B0FA80FC00FA0CF050EAA6
:10088000010404BF10BC704749B1CCF1200421FA27
:1008900004F411FA0CF118BF012121430843A3EB22
:1008A0000C01CB1D0106000A002BBEBF002010BCAE
:1008B000704700EBC35010440029A4BF10BC704720
:1008C000401C490008BF20F0010010BC704710B563
:1008D000002B08DA401C41F1000192185B411A43D9
:1008E00001D120F0010010BD2DE9F04D92469B464C
:1008F00011B1B1FA81F202E0B0FA80F220329046F2
:10090000FFF77EFF04460F4640EA0A0041EA0B016A
:1009100053465A46084303D120463946BDE8F08D78
:10092000114653EA010015D0C8F140025046FFF7C6
:1009300076FF05460E46504659464246FFF760FF91
:10094000084301D0012000E00020054346EAE0769C
:100950002C4337430A984FEA4453A0EB08004FEA70
:10096000D4240A304FF0000244EA47544FEAD72516
:1009700002D500200146D1E7010510196941DDE9E2
:10098000084500196941BDE8F04DA0E7064C074D48
:1009900006E0E06840F0010394E80700984710344F
:1009A000AC42F6D3FFF7F2FB182F0008382F0008EF
:1009B00070B58D1810F8014B14F0030201D110F836
:1009C000012B231106D110F8013B03E010F8016B55
:1009D00001F8016B521EF9D1B3B110F8012B04F0EC
:1009E0000C048A1A0C2C04D0A2EB841203F102032B
:1009F00008E010F8014BA2EB0422F7E712F8014BD4
:100A000001F8014B5B1EF9D5A942D3D3002070BD7C
:100A100010B549480078401C4749087008460078DE
:100A2000142801D10020087044480078012811D111
:100A300041480078022807DA002041490870322135
:100A4000012000F011FC05E001203D490870002163
:100A500000F00AFC2E2000F099FB3A4908612F2093
:100A600000F094FB37494861002037490870374946
:100A70000870344840693649884210DA35480078B1
:100A800001280CDCFF20344908700520314908702A
:100A900000203249087001202B49087033E02948B2
:100AA00040692F49884202DB2C48007840B1254834
:100AB00040692C49884225DB28480078012821D14B
:100AC00001202149087024480078283822490870FC
:100AD00008460078AF2816DA1E480078401E1D49E7
:100AE0000870FF201C4908701A48007801280ADCA9
:100AF0000120184908700020184908700120134986
:100B0000087000E000BF14480178002000F0ACFB42
:100B10000A48007820B910480178012000F0A4FBB1
:100B20000C480178002000F083FB0A48017801207E
:100B300000F07EFB10BD000054030020D80200200E
:100B400055030020DC3300204C0300204D0300201F
:100B5000E093040053030020520300204E030020C2
:100B600040420F0040771B0000BFFEE770470000C7
:100B700010B5082000F022F850B1082000F018F855
:100B800000200449087004480068401C02490860BD
:100B900010BD0000110000201800002010B510202A
:100BA00000F00CF810B1102000F002F810BD0000A9
:100BB0000149086070470000143C014001460020D4
:100BC0000022074B1B6803EA0102054B14331B6824
:100BD0000B4202D00AB1012000E000207047000063
:100BE000003C0140F8B5044600251148007828B1C2
:100BF0000CB1042000E00520009004E00CB90120B5
:100C000000E0002000906E4610210A4800F06BF9C9
:100C1000002506E0C5F10301705C00F0DBFA681CFA
:100C2000C5B2042DF6DB1021024800F05EF9F8BDD4
:100C30000A0000200000024010B529480178294828
:100C400002780078401C274B1870274881542748A9
:100C50000178184602780078401C187022488154A8
:100C600023480278184601780078401C18701E4806
:100C7000425420480178184602780078401C1870C9
:100C8000194881541C480178184602780078401CA5
:100C90001870154881541948017818460278007870
:100CA000401C187010488154154801781846027885
:100CB0000078401C18700C4881541846007823288E
:100CC00002D10020194608700E480078C01D0D4959
:100CD0000870012240F227710B4800F05FFC10BD44
:100CE00082030020760300201C34002083030020B0
:100CF0008403002085030020860300208703002052
:100D00008803002074030020001001402DE9F04FFB
:100D10008FB00D46002400200E900D900C900B908B
:100D20000A900026099008900790002705900690E9
:100D300003900490029001905F480078401C5E4947
:100D4000087008460078052801DB0520087000249B
:100D50000DE05A49601C31F8100021F81400584980
:100D6000601C31F8100021F81400601CC4B2042C7F
:100D7000EFDB5348058150480078022875DB4E4868
:100D80000078C0F10500C4B20BE04D4931F8140001
:100D9000FFF77CFC80463146FFF719FA0646601CD7
:100DA000C4B2052CF1DB44480078FFF76FFC8046A5
:100DB00041463046FFF799FA06463F480078C0F1B1
:100DC0000500C4B21CE03E4931F81400FFF75EFC98
:100DD00083463146FFF750FA8146FFF76DFCB0F1CC
:100DE000000801DB414601E0C8F100010846FFF7B9
:100DF00044FC82463946FFF7EAF90746601CC4B254
:100E0000052CE0DB2C480078FFF740FC804641468B
:100E10003846FFF76AFA07462748007805282BDA94
:100E200031462848FFF761FA4FF07E510090FFF7F6
:100E3000CEF9834659462348FFF757FA8246314692
:100E4000FFF71AFA81462049FFF719FA804639461A
:100E5000FFF7CCFC0AD802201C4908703046FFF787
:100E600044FC80B20FB0BDE8F08F1DE01848006868
:100E7000FFF73BFC80B2F5E70F480078052819D151
:100E80004FF081413846FFF7A7FC07D802200F49F1
:100E900008703046FFF729FC80B2E3E70C48006891
:100EA000FFF723FC80B2DDE709480068FFF71DFC6F
:100EB00080B2D7E700BFD5E73B0000201C2500200B
:100EC000262500200080BB45000040405C02002039
:100ED0006C0200200246002013690B4201D0012061
:100EE00000E0002070474183704701837047000095
:100EF0002DE9F04F87B0002005908346049081468D
:100F0000824603900290002407E08949601C51F852
:100F1000200041F82400601C84B2C72CF5DB854812
:100F200000688349C1F81C030846D0F80090D0F847
:100F300000A0002411E07E4850F82400484502DB60
:100F40007B4850F824907A4850F82400504502DC41
:100F5000774850F824A0601C84B2C82CEBDB002436
:100F600007E07549601C51F8200041F82400601C1E
:100F700084B2282CF5DB6F4800686F49C1F8A000E7
:100F80000846006DC96C884217DA6B48006D6A49E3
:100F9000496D884211DC00240DE06748006D664908
:100FA00051F82410884204DC64480078401C6349EE
:100FB0000870601C84B2292CEFDB60480078292877
:100FC0002FD15D48006DA9EB00000490A9EB0A0049
:100FD0005B49086008460068FFF75DFB0746594A11
:100FE000594BFFF769FA05460E460498FFF753FB85
:100FF0002A463346CDE90001FFF7BEFB08D20120A7
:101000005249887052480078401C5149087014E0D9
:1010100000204E4988704F480088401C4D49088088
:101020000BE04B480078012807D100204749887021
:1010300048480088401C47490880002046490870FD
:101040003E4908704248007802285FD14048007845
:101050004049098808441FFA80FBABF1010041F2C6
:10106000707191FBF0F03D490880002407E03C4995
:10107000601C31F8100021F81400601C84B2092CA7
:10108000F5DB38480078012822D13449098841F23B
:10109000707292FBF1F1344A128841F2707393FB43
:1010A000F2F2881A01D4014600E04142082916DC18
:1010B00001202E49087000202D4908702949087028
:1010C000264800882649488202202A49087006E0FE
:1010D00001202649087021480088214948821F487C
:1010E0000088232804DB1D480088B0F5967F03DDC7
:1010F0001D48008819490880184800881A49088046
:10110000012013490870002012490880002405E0DE
:101110001949601C085C0855601C84B2952CF7DBEB
:101120000A488078144981F8950007B0BDE8F08F2F
:101130008C03002048020020F8170020EB0200205A
:101140002C0000209A9999999999E93F5902002019
:10115000E3020020E6020020EC020020C60200208C
:10116000442500203D000020C8020020C5020020C8
:101170003C0000203A000020D208002010B5FFF704
:101180000BF810BD00BFFEE77047704770B506460C
:10119000002400250020FFF725FD10210C48FFF753
:1011A000A2FE304600F016F800BF09E0002000F073
:1011B00011F8C4F10201C90088400543601CC4B2A3
:1011C000032CF3DB10210248FFF78FFE284670BD89
:1011D0000000024070B50446002500BF02210B4804
:1011E00000F016F80028F9D02146084800F01CF855
:1011F00000BF0121054800F00BF80028F9D0034892
:1012000000F00FF8C5B2284670BD00000030014064
:101210000246002013890B4201D0012000E000208B
:101220007047014688897047818170477047000088
:1012300070B504460D46094805550246125D084B37
:101240009A5C03461B5D074EF35C42EA030104F11E
:101250002002D0B200F0CEF970BD00006E03002075
:10126000560300205D0300202DE9F04104460E46A0
:101270001148075D374684B92220FFF787FF0546EE
:10128000E8B240EA072040F40031222000F0B2F931
:101290002220FFF77BFF05460BE02220FFF776FFB9
:1012A000054605F47F40384340F40031222000F029
:1012B000A1F9BDE8F0810000700300200CB500200A
:1012C000019000902D48006840F480302B49086060
:1012D00000BF2A48006800F4003000900198401CCC
:1012E0000190009818B90198B0F5A06FF1D123488A
:1012F000006810F4003F02D00120009001E00020BF
:1013000000900098012837D11C48083000681B491C
:10131000083108600846006840F40040086008464C
:10132000006840F4A05008601548091F0860081FB5
:10133000006840F08070091F086000BF0F48006817
:1013400010F0007FFAD040F203700E4908600B489D
:101350000830006820F0030008490831086008469A
:10136000006840F00200086000BF044808300068D0
:1013700000F00C000828F8D10CBD00000038024035
:10138000083C4005003C02400448008820B1034866
:101390000088401E014908807047000008000020B6
:1013A00010B51248006840F00100104908600020A4
:1013B0000E49083108600D4800680D4908400B4986
:1013C00008600C48091D0860081F006820F4802090
:1013D000091F0860002005490C310860FFF76EFF07
:1013E0004FF000600449086010BD00000038024062
:1013F000FFFFF6FE1030002408ED00E01CB50020D1
:10140000019000900421044800F041F818B1042133
:10141000014800F039F81CBD0000014010B5012161
:10142000880700F034F818B10121880700F02CF883
:1014300010BD000010B50221044800F028F818B1D2
:101440000221024800F020F810BD00000004004016
:1014500010B50221044800F01AF818B10221024820
:1014600000F012F810BD00000008004010B5012186
:10147000044800F00CF818B10121024800F004F80B
:1014800010BD0000000C0040CA430282704730B516
:101490000246002000230024158A05EA01039589ED
:1014A00005EA010413B10CB1012000E0002030BDB9
:1014B0007047000010B540F225510A4800F044F88A
:1014C00020B140F22551074800F02FF840F2277173
:1014D000044800F039F820B140F22771014800F0CB
:1014E00024F810BD0050004010B500F0FFF910BD09
:1014F0007047000010B540F225510A4800F024F86A
:1015000020B140F22551074800F00FF840F2277152
:10151000044800F019F820B140F22771014800F0AA
:1015200004F810BD00480040704710B500220023A9
:10153000A1F510646A3C00D100BF0A120124944056
:10154000A3B2DC43048010BD70B502460024002322
:1015500000250020A1F510666A3E00D100BFC1F34E
:10156000421501F01F03012606FA03F3012D02D1F3
:101570009689334006E0022D02D1168A334001E0FD
:10158000968A33400C12012606FA04F41688344079
:1015900013B10CB1012000E0002070BDF0B503468E
:1015A0000024002600250020A1F510676A3F00D125
:1015B00000BF1846C1F3421401F01F06012707FAC5
:1015C00006F5012C01D10C3004E0022C01D11030C1
:1015D00000E014301AB107682F43076002E0076883
:1015E000AF430760F0BDC1F308028280704700BFBF
:1015F000FEE7000073B505460024019865F31F60FF
:10160000019001AE0120FFF7EDFA10210948FFF724
:101610006AFC00BF06E0C4F10301705CFFF7DAFD6D
:10162000601CC4B2042CF6DB10210248FFF75DFCFD
:101630007CBD00000000024002E008C8121F08C183
:10164000002AFAD170477047002001E001C1121F43
:10165000002AFBD17047000070B50024002588489F
:101660000078012803D100208649088004E08548DD
:101670000088401C834908808248008800280BDDD0
:1016800080480088B0F5617F06DA00217E48006856
:10169000FFF7A2F800D101247A480088B0F5617FF5
:1016A00010DB4FF4617077490880002176480068AC
:1016B000FFF792F805D0002174480068FFF78CF816
:1016C00000D10125002170480068FFF785F802D19C
:1016D00000206F49087020216E48FFF7FBFB0128AE
:1016E00003D06D48007801280FD100206B4981F8A4
:1016F0004F006B4908706549086063490860644998
:10170000087001205E4908700024664800780128AE
:1017100004D15F4908700020624908706048007871
:1017200010B900205A490870002157480068FFF797
:1017300053F80CD055480068FEF7D7FF5A49087097
:1017400051480068FEF7D1FF5849087006E00020B4
:101750005549087055490870554908605548007842
:10176000012805D100204E4908704C4981F84F00EE
:101770004E48007810B14C48007810B90020444918
:10178000087000214C480068FFF726F802D80020B6
:10179000494908604948007801280CD14848007838
:1017A0003749087047480078404908704648007833
:1017B0003D4908700BE032480078414908703B48C9
:1017C000007840490870384800783F490870394827
:1017D0000078012806D13A4908700020394908707C
:1017E0003949087020212B48FFF774FB202101EABA
:1017F000401040F080002649097840EA811040EA14
:10180000051032490978084331490870234890F897
:101810004F00304908702548007800F08000002112
:1018200041EA60001649097840EA01101C4909782C
:1018300001F00F01084340EA4410274908701B4893
:10184000007800F07F002549087017480078244987
:10185000087017480068FEF748FFC0F346002149AA
:10186000087013480068FEF740FF00F001000021F7
:1018700041EAC0101C490870FFF7DEF970BD000096
:10188000D8020020800300206802002064020020AB
:101890005802002000040240380000209425002057
:1018A000FE02002077030020780300207903002047
:1018B000500000204D030020340000204C03002085
:1018C000890300207B0300207A030020000300200E
:1018D000820300208303002084030020850300206E
:1018E00086030020870300208803002010B51048DD
:1018F000104A1278815C1048FFF775FE0D48007899
:10190000401C0C49087008460078232801D10020AB
:1019100008700A480078401E084908700846007898
:1019200028B9002240F227710348FFF737FE10BDA7
:101930001C340020750300200010014074030020B7
:101940002DE9F04100250026FE480078012810D13D
:10195000002408E00020FC4941F82400FB4941F83C
:101960002400601C84B2652CF4DB0020F849087068
:1019700004E0F7480078401CF5490870F448007806
:10198000652805DB6520F24908700120F1490870DF
:1019900000240DE0EC49601C51F8200041F82400BF
:1019A000EA49601C51F8200041F82400601C84B210
:1019B000642CEFDBE8480069E349C1F89001E64890
:1019C0004069E249C1F89001E4480068E4490860D0
:1019D000DF48007865282BD100240BE0E14951F85D
:1019E0002400FEF769FED84951F8241000FB015588
:1019F000601C84B2642CF1DD42F2107095FBF0F0B3
:101A0000D949086000240BE0D64951F82400FEF7BC
:101A100053FECE4951F8241000FB0166601C84B2CD
:101A2000642CF1DD42F2107096FBF0F0CB490860B7
:101A3000C9484069CD49884202DACD48007840B1B2
:101A4000C5484069C94988427EDAC94800780128FA
:101A50007AD10020C74908700120C5490870C648DE
:101A6000007810B91E20C4490870FFF741FAB84841
:101A70000078652805D1C1480168C148006800F0B8
:101A800017FAC0480078012819D10020BD49087014
:101A9000BD49BE480068FEF7A9FE02D2BA48BB495C
:101AA0000860BA480068FEF720FE1FFA80F840463A
:101AB00001F082F90746FEF7E9FDB5490860B5482F
:101AC000007801282FD1B4480188B4480088FFF776
:101AD0001DF90746FEF7DAFDB1490860B149B04883
:101AE0000068FEF783FE02D2AE48AD490860AE49F9
:101AF000AB480068FEF770FE02D20020A8490860DB
:101B0000A7480068FEF7F1FD1FFA80F8404601F093
:101B1000D9F80746FEF7BAFDA44908600020A44999
:101B200008709C490870A3480078012825D19B487B
:101B3000008800F1010041F2707191FBF0F0A0F11A
:101B400037000004000C00E016E044D493480088FD
:101B5000401C91FBF0F0373880B296283BDA8F4872
:101B60000088401C91FBF0F0373880B2C0F195003E
:101B70009149085C914908702DE08E480078022850
:101B800023D18548008800F1010041F2707191FB7A
:101B9000F0F0A0F114000004000C1CD47E48008872
:101BA000401C91FBF0F0143880B2962813DA7A4882
:101BB0000088401C91FBF0F0143880B2C0F1950011
:101BC0007F49085C7D49087005E07A48007810B9C3
:101BD00000207A490870604840696449884202DB05
:101BE0006348007890B15C4840696049884203DBF3
:101BF0005F480078012809D020217248FFF76AF970
:101C0000012803D070480078012872D1002058497B
:101C10000870504908706D490860574800780028DE
:101C200003DC01205349087004E053480078401E4B
:101C30005149087000206649086066490860664995
:101C400008705649088054490880584908604F492F
:101C500008604F49086055490860514908605F496C
:101C600008705F4908605F4908705F4908705F4904
:101C700008705F4908705F4908705F4908705F49E4
:101C800008705F4908705F4908705F485F490860E5
:101C900001205F49087000205E4908705E49088095
:101CA0005E49088001205E4908705E490870002086
:101CB0005D4908705D49086001205D490870002099
:101CC00030490870002410E000205A4921F814001F
:101CD000594921F81400052C05DA584921F8140057
:101CE000574921F81400601C84B20F2CECDB00244F
:101CF00024E0BAE00020534941F82400524941F859
:101D00002400524941F82400514941F82400C82CCC
:101D100002DA504941F82400962C04DA00202649C2
:101D20000855274908550A2C06DA00204A4921F8A7
:101D300014004A4921F81400601C84B2B4F5C87F2D
:101D4000D8DB8DE04C03002068090020FC0A00204D
:101D5000470000204E030020DC3300204802002012
:101D60004C020020580000204402002040771B0055
:101D700024000020D8020020D902002040020020C8
:101D800020020020460000200000C842600200201F
:101D900064020020C5020020C6020020C00200200C
:101DA0006C02002000007F430000F0416802002028
:101DB000C40200205C0200203C08002058020020E1
:101DC000D20800200004024038000020200000203B
:101DD000480000204C000020FC02002000030020EE
:101DE00050000020FD020020FE020020D002002052
:101DF000D4020020E3020020E4020020EC020020D4
:101E0000EB020020F602002080969800F8020020E5
:101E1000FF0200203B000020C2020020C802002078
:101E20003C0000203D000020450000204000002034
:101E30004400002058250020762500201C25002085
:101E4000262500209C180020BC1B0020DC1E002042
:101E5000FC2100208C030020302500204425002098
:101E600000200D4908800D4908600D4840690D4962
:101E7000884202DB0C48007840B1094840690949B2
:101E8000884206DB08480078012802D10020074973
:101E90000870BDE8F0810000B8020020200000209A
:101EA000DC33002040771B00240000204700002086
:101EB0002DE9F04F93B0002400201290119096204D
:101EC000109000200F900E900D900C900B900A90A7
:101ED00000BF19E0FE49601C51F8200041F82400C1
:101EE000FC49601C51F8200041F82400FA49601CAC
:101EF00051F8200041F82400F849601C51F82000F6
:101F000041F82400601C84B2952CE3DBF44800699E
:101F1000EF49C1F85402F2484069EE49C1F8540251
:101F2000F0480068EC49C1F85402EF480068EB49FA
:101F3000C1F85402ED480088401CEC49088000209C
:101F4000EB490870E948008896287DD10020E749D0
:101F50000880DF480068E7490860DD480068E64916
:101F60000860DC480068E5490860DA480068E44930
:101F70000860D9480068E3490860D7480068E2492A
:101F80000860D6480068E1490860D4480068E04924
:101F90000860E049E0480068FEF728FC08D2DF4905
:101FA000DD480068FEF718FC02D26420109025E09E
:101FB000DA49D9480068FEF719FC08D8D849D6484C
:101FC0000068FEF709FC02D23C20109016E0D449CC
:101FD000D1480068FEF70AFC08D8D249CE4800680C
:101FE000FEF7FAFB02D22820109007E0C949CA4840
:101FF0000068FEF7F1FB01D89620109000201190A8
:102000001098C0F1970084B2EBE0B14850F824106A
:10201000601EAF4A52F82000814213DB104650F890
:102020002410601C52F8200081420BDB104650F84F
:102030002400B0490968884204DD104650F82400A5
:10204000AC490860A24800E086E250F82410601E07
:102050009F4A52F82000814213DC104650F82410A9
:10206000601C52F8200081420BDC104650F824001E
:10207000A1490968884204DC104650F824009E49B2
:102080000860944850F82410601E924A52F82000CC
:10209000814213DB104650F82410601C52F82000D7
:1020A00081420BDB104650F82400944909688842AD
:1020B00004DD104650F8240090490860854850F827
:1020C0002410601E834A52F82000814213DC10461F
:1020D00050F82410601C52F8200081420BDC10469E
:1020E00050F8240086490968884204DC104650F8FC
:1020F000240083490860784850F82410601E764A0E
:1021000052F82000814213DB104650F82410601C66
:1021100052F8200081420BDB104650F82400794928
:102120000968884204DD104650F8240075490860AB
:10213000694850F82410601E674A52F82000814216
:1021400013DC104650F82410601C52F82000814225
:102150000BDC104650F824006B490968884204DC07
:10216000104650F82400684908605C4850F8241074
:10217000601E5A4A52F82000814213DB104650F884
:102180002410601C52F8200081420BDB104650F8EE
:1021900024005E490968884204DD104650F8240096
:1021A0005A4908604D4850F82410601E4B4A52F8B6
:1021B0002000814213DC104650F82410601C52F8B5
:1021C000200081420BDC104650F824005049096879
:1021D000884204DC104650F824004D490860601C19
:1021E00084B2952CFFF611AF43480068FEF753FA0E
:1021F00005464D4A4D4BFEF75FF9074688463D4878
:102200000068FEF748FA0546474A484BFEF754F97E
:102210003A464346CDE90001FEF7A7F88246FEF7AD
:10222000BFFA0390FEF794FACDE90601344800683E
:10223000FEF731FA05463C4A3C4BFEF73DF90746AE
:1022400088462E480068FEF726FA0546364A374B80
:10225000FEF732F982463A464346FEF786F8CDE964
:102260000401DDE90623FEF799F9CDE90801FEF73F
:1022700097FA2F49086025490968254A1268881A83
:10228000FEF7FBF905461F4909681F4A1268881ABC
:10229000FEF7F3F906462946FEF727F825490860B8
:1022A0002548007890B92548007801284ADC4FF08D
:1022B0007E500968224ACDE90310103207CA8DE822
:1022C00007001F480FC800F099FC49E048E00000F3
:1022D0009C180020BC1B0020DC1E0020FC210020DC
:1022E000DC3300204402002048020020B802002015
:1022F00039000020700200207402002078020020C3
:102300007C0200208002002084020020880200203D
:102310008C0200200000A04268020020000016434A
:102320000000484300007A439A9999999999B93FD6
:102330004403002048030020440000204500002002
:1023400004290020FE480068FE4A0390103207CAA4
:102350008DE80700FB480FC800F0E4FBF84908606F
:10236000F7480168F8480068FDF789FFF7490860F9
:10237000F7480068FEF78FF90546F64AF64BFEF778
:102380009BF8CDE90401F5480068FEF784F905469D
:10239000F04AF14BFEF790F80746DDE90423FDF71C
:1023A000E4FF82468B46EE490968EE4A1268891AB4
:1023B0004800FEF770F952465B46CDE90601FEF78C
:1023C000EDF8CDE90801FEF7EBF981464846FEF746
:1023D000BFF90546E44AE54BFEF76EF882468B46A8
:1023E0004846FEF7B5F9CDE902014846FEF7B0F9D7
:1023F0000746DF4ADF4BFEF75FF80546DDE90223BB
:10240000FEF75AF852465B46CDE90401FDF7ADFFF1
:10241000D94ADA4BCDE90601FEF748F8CDE90801C3
:10242000FEF7BEF9D6490860D649D5480068FEF7E0
:10243000DDF902D20120D4490870C4480068FEF7D3
:1024400087F90546D14AD24BFEF736F8CDE90401AB
:10245000BE480068FEF77CF905460E46BB4800689A
:10246000FEF776F98246CB4ACB4BFEF725F80746B6
:102470002A463346FEF720F8CDE90201DDE90423C0
:10248000FDF773FFC54AC64BCDE90601FDF76DFFA9
:10249000CDE90801FEF784F9C249086008460068E2
:1024A000FEF70AF98246FEF7E8F88046BD48016863
:1024B0004046FDF7E1FE0546FEF74AF906460022D2
:1024C000B94BFEF759F90AD8B6480068FEF7F4F898
:1024D000451C2846FEF7D1F8B249086008E0B1482B
:1024E0000068FEF7E9F80546FEF7C7F8AD49086051
:1024F0000021AC480068FEF76FF902D20020A9491C
:102500000860AA480078F8B9A948007801281CD1C9
:10251000A8480168A3480068FDF7ABFE0646FEF731
:10252000CBF8051E01DB284600E0684202280FDCDC
:1025300000219C480068FEF74FF909D000209C4913
:10254000087001209C49087002E001209A49087037
:1025500094480068974908609848006800F07CF942
:1025600040B2974908707E4800687E490968401A61
:10257000B0F5FA5F03DD0F209249087056E0784805
:10258000006878490968401A41F27071884203DD99
:102590000C208C49087049E071480068714909684D
:1025A000401AB0F57A6F03DD0920864908703DE0D6
:1025B0006B4800686B490968401AB0F5FA6F03DD93
:1025C00006208049087031E065480068654909685F
:1025D000401A40F2DC51884203DD0320794908703B
:1025E00024E05F4800685F490968401A40F21451CE
:1025F000884203DD02207349087017E058480068DC
:1026000058490968401A40F24C41884203DD0120D4
:102610006C4908700AE05248006852490968401A3B
:10262000B0F57A7F02DA002066490870644890F9B4
:1026300000007E2802DB7E2061490870604890F926
:102640000000002802DC00205D4908705E494C480B
:102650000068FEF7CBF801D25B4801E0484800680B
:102660004749086008460068584908604FF07E51A5
:1026700056480068FEF7BAF829D854480068FEF7B3
:102680001BF88246FDF7F9FF804650480168404636
:10269000FDF7F2FD0546FEF75BF806460022424BC9
:1026A000FEF76AF80AD849480068FEF705F8451CA5
:1026B0002846FDF7E2FF4549086008E04348006806
:1026C000FDF7FAFF0546FDF7D8FF404908603F488F
:1026D0000068FEF70AF83B490870084600780F28A2
:1026E00001DD0F2001E0374800783649087038498D
:1026F00036480068FDF7C3FD344908603449334863
:102700000068FEF769F874D230480068FDF7D4FF1E
:102710008246FDF7B2FF80462C4801684046FDF72F
:10272000ABFD0546FEF714F8064600221E4BFEF7E9
:1027300023F855D825480068FDF7BEFF451C49E041
:10274000480300200429002044030020280300201F
:102750007C0200209A9999999999B93F78020020B2
:10276000880200208C020020894160E5D0E22440EC
:10277000F46C567DAEB6E0BFB5A679C7293A923F54
:10278000040300200000F041390000200681954339
:102790008BEC2740B0726891ED5C3EC0F6285C8FF0
:1027A000C2155940600200200000E03F38000020C0
:1027B0004400002040000020460000204802002085
:1027C000FD020020000300200000A0415000002076
:1027D000000020412846FDF750FF1B49086008E033
:1027E00019480068FDF768FF0546FDF746FF1649E2
:1027F0000860002405E01549601C085C0855601C51
:1028000084B24F2CF7DB124890F900000F4981F891
:102810004F0091F94F00C11700EB5171C1F3C7018F
:102820000C4A1170104600780F2802DB0F20114669
:10283000087008480078002802DC0020054908706C
:1028400013B0BDE8F08F0000500000209425002058
:10285000FD020020FE0200202DE9F04F8DB08246DF
:102860004FF0000900200C90002400BF07E09E49B3
:10287000601C51F8200041F82400601CC4B2C72C31
:10288000F5DB9948C0F81CA3D0F81C0397490860F1
:102890009548D0F81C0396490860C62445E0924844
:1028A00050F8240028B9601E8F4951F8200000B963
:1028B0003DE08D4850F824008C490968884215DDB8
:1028C000894850F82410601E874A52F8200081423F
:1028D0000CDB104650F82410601C52F82000814296
:1028E00004DD104650F82400804908607E4850F806
:1028F00024007F490968884215DA7B4850F8241083
:10290000601E794A52F8200081420CDC104650F8D3
:102910002410601C52F82000814204DA104650F85E
:10292000240073490860601EC4B2012CB7DC00BFEC
:102930006E4800686E490968401A6E4908600020B8
:102940006D4908706B480068B0F5FA7F01DA012024
:10295000087066480068A0EB0A00684908600846ED
:102960000068002801DC00200860624800686449B3
:10297000884214DD5F480068FDF77FFE07465F4828
:102980000068FDF77AFE80465E49FDF778FC064652
:102990003946FDF7AAFC0546FDF78EFE81465548EF
:1029A000006841F28831884224DA52480068B0F564
:1029B000FA7F1FDD4F480068FDF75FFE8346FDF795
:1029C000C7FE074688464D480068FDF756FE834619
:1029D000FDF7BEFE4C4A4D4BCDE90801FDF76CFDFD
:1029E0003A464346CDE90A01FDF7D8FD0546FDF715
:1029F00090FE81463F48006841F28831884244DBBE
:102A00003C4800683E4988423FDC3A480068FDF790
:102A100034FE0746FDF79CFECDE90A013748006801
:102A2000FDF72BFE0746FDF793FECDE90601314881
:102A300000684FF47A7190FBF1F0A0F1050B584655
:102A4000FDF71BFE80463249FDF74FFC0746FDF7B8
:102A50007FFE304A304BCDE90001FDF786FC0022B5
:102A60002E4BCDE90201FDF727FDCDE90401DDE99B
:102A70000623FDF721FDCDE90801DDE90A23FDF775
:102A80008DFD0546FDF745FE8146B9F17F0F09DD55
:102A90001A48006817490968884203DD174800682A
:102AA00016490860B9F17F0F01DD7F2000E048463C
:102AB00081461B490968B9EB010001D4014600E0D9
:102AC0004142502904DB164800780DB0BDE8F08F74
:102AD0001348C0F80090B9F1000F01DA4FF0000977
:102AE00009F0FF00F1E70000E42500200C030020BE
:102AF00010030020140300203800002018030020D9
:102B0000A08601000000FE42676666666666494070
:102B1000000020439A9999999999D93F00C05F4044
:102B2000200000200FB42DE9F0410D9C324A1168BD
:102B30005068FDF7A4FB304908600A4651685068A8
:102B4000FDF79DFB06462C4841693046FDF797FB93
:102B500005462948C1682846FDF739FB26494861E2
:102B60000A4691685069FDF78AFB804622488168D1
:102B70004046FDF784FB06461F4801693046FDF7D5
:102B800026FB05461C4A91685069FDF778FB07460D
:102B90002946FDF7AAFB184988610A461168906822
:102BA000FDF76DFB07462146FDF766FB064612481A
:102BB00081693046FDF763FB05460F4801682846EA
:102BC000FDF705FB0C4908600A4691680C98FDF773
:102BD00056FB06464FF07E51FDF74EFB0546064874
:102BE00041692846FDF74BFB0349486108460068E8
:102BF000BDE8F0015DF814FB0429002030B5DDE9E3
:102C000006540648056044614FF07E500349486011
:102C100088600348C8600348086130BD042900206B
:102C20000AD7233C9A99993E00244FF47A750025DF
:102C300009E01E4850F825101D48FDF720FB1B49F0
:102C400041F825006D1C652DF3DBFDF7BDFA2CE086
:102C500018480068002828DD00201649086016483A
:102C6000006880F4806014490860FDF7D1FEFEF72B
:102C700067FE601CC4B2642C00D10024204604EB23
:102C8000D0714910A4EB4101012905D00A2194FB20
:102C9000F1F201FB124111B9FEF7DEFC05E0074835
:102CA0000078012801D106490870D1E758000020BA
:102CB00000401C4618000020140802405802002062
:102CC000770300202DE9F05F0546002600243648F2
:102CD0000078401C3449087000BF07E03349601C8D
:102CE00031F8100021F81400601CC4B2042CF5DB8C
:102CF0002E480581008840B32C48408828B32B48D3
:102D0000808810B32948C088F8B127480078022885
:102D100018DB00202449087024480088234949888A
:102D200008442249898808442049C98808441F4921
:102D300009890844052190FBF1F73846FDF79DFC11
:102D4000064607E01A48066804E018490889FDF7B6
:102D50009DFC06463046FDF7AFFC8346FDF78DFC33
:102D600082463146FDF788FA8146FDF7F1FC0746B9
:102D70000022104BFDF700FD08D83046FDF79CFC03
:102D8000471C3846FDF779FC064606E03046FDF75D
:102D900093FC0746FDF771FC06463046FDF7A5FC9F
:102DA00080B2BDE8F09F00000803002058250020F5
:102DB000680200200000E03F2DE9FC5F06464FF06E
:102DC00000090024A24600254D480078401C4C49CB
:102DD00008704C480078401C4A4908700846007842
:102DE000052801DB05200870002407E04649601C27
:102DF00031F8100021F81400601CC4B2092CF5DB76
:102E0000414846823F480078C0F10A00C4B20BE056
:102E10003D4931F81400FDF739FC07462946FDF716
:102E2000D6F90546601CC4B20A2CF1DB354800789F
:102E3000FDF72CFC074639462846FDF756FA0546AD
:102E400030480078C0F10A00C4B21AE02E4931F8C7
:102E50001400FDF71BFC29460190FDF70DFA804692
:102E6000FDF72AFC071E01DB394600E079420846DF
:102E7000FDF703FC83465146FDF7A9F98246601C25
:102E8000C4B20A2CE2DB1F480078FDF7FFFB0746BF
:102E900039465046FDF729FA82461C495046FDF74F
:102EA0009BFC01D8A94602E01948D0F8009048469A
:102EB000FDF702FC0090FDF7E0FB83464946FDF775
:102EC000DBF90190FDF744FC07460022114BFDF7AA
:102ED00053FC08D84846FDF7EFFB471C3846FDF782
:102EE000CCFB814606E04846FDF7E6FB0746FDF7CA
:102EF000C4FB81464846FDF7F8FB80B2BDE8FC9F65
:102F000009030020450000207625002000004040F5
:102F1000640200200000E03F382F0008000000207D
:102F20008C030000B0090008DC3000088C0300208E
:102F3000B4A800004816000892000120057F00FF99
:102F4000FF08110603210F00015301010801111CA4
:102F500030CCD05A3FBCB7E93EBC98DB32BCF77AE4
:102F60001CBCEBBBFCBB494EB8BB0E8F68BB508A88
:102F7000E6BA597605BA38A0B1B53270BCB9FF14BB
:102F8000D3BAF4EA70BB8FF1D0BBFEBF1ABCCCB889
:102F90004DBCE4A27BBCDF7D8FBCBD9399BC8B8410
:102FA0009ABCDFBB91BC00827FBC74744CBCA49FF4
:102FB0000FBCA0BF9FBB9681A7BAF232CB3ABFBB72
:102FC000503B598A583BF91BE33A40E6C7BAFD79B2
:102FD000CDBB8C7C46BCB48F97BCF2BFCABC4FB093
:102FE000F6BC66A20ABD9C7D10BD29BE0ABDBF18F5
:102FF000F0BCA524B0BC26502EBC6911393BDF00C3
:10300000953C3E900D3DA68F503D678D873DD17A12
:10301000A23D8A32B73D733FC43D39B4C808211080
:1030200021182120212821302138214021482150F8
:1030300021582160216821702178218021882190E8
:10304000219821A021A821B021B821C021C821D0D8
:1030500021D821E021E821F021F8250025082510BC
:103060002518252025282530253825402548255098
:103070002558256025682570257825802588259088
:10308000B4056F12833AC045F79A3F03061D40F31B
:1030900003294000010372010001123704221FDCE2
:1030A00042010C4114DA37A0000455809698A31011
:1030B0000DFF05000105040302010006F8015C0F85
:1030C00080502819324B647D96AFC8E1FA00620344
:0C30D0004579B4043C193C2200000000CB
:040000050800018569
:00000001FF
